:020000040800F2
:10000000E89000205D02000805520008D52D000888
:100010004D4F0008E11300082D7F0008000000008C
:100020000000000000000000000000009D0100082A
:10003000F51F000800000000F90100086D770008B6
:1000400077020008770200087702000877020008AC
:10005000770200087702000877020008770200089C
:10006000770200087702000877020008770200088C
:10007000770200087702000877020008770200087C
:10008000770200087702000877020008770200086C
:10009000770200087702000877020008770200085C
:1000A000770200087702000877020008770200084C
:1000B0007702000877020008D97800087702000864
:1000C000770200087702000877020008770200082C
:1000D00077020008857A0008097B0008D17B0008B8
:1000E000770200087702000877020008770200080C
:1000F00077020008770200087702000877020008FC
:1001000077020008770200087702000877020008EB
:1001100077020008770200087702000877020008DB
:1001200077020008770200087702000877020008CB
:1001300077020008770200087702000877020008BB
:1001400077020008770200087702000877020008AB
:10015000770200087702000877020008770200089B
:10016000770200087702000877020008770200088B
:10017000770200087702000877020008770200087B
:100180007702000877020008DFF80CD000F084FC4A
:1001900000480047A1BB0008E89000202C4B1968DC
:1001A0000868B0E8F04F80F30988BFF36F8F4FF015
:1001B000000080F3118870470000000008480068C4
:1001C000006880F308884FF0000080F3148862B65E
:1001D00061B6BFF34F8FBFF36F8F00DF00BF00BF6B
:1001E00008ED00E0DFF80C00016841F470010160E7
:1001F000704700BF88ED00E0EFF30980BFF36F8F19
:10020000134B1A681EF0100F08BF20ED108A20E96A
:10021000F04F106009B44FF0B00080F31188BFF3C5
:100220004F8FBFF36F8F0EF0EDF84FF0000080F3AB
:10023000118809BC19680868B0E8F04F1EF0100F6B
:1002400008BFB0EC108A80F30988BFF36F8F704746
:1002500024030020EFF30580704700000648804724
:1002600006480047FEE7FEE7FEE7FEE7FEE7FEE79B
:10027000FEE7FEE7FEE7FEE7A17700088901000838
:1002800040EA01039B0703D009E008C9121F08C018
:10029000042AFAD203E011F8013B00F8013B521E98
:1002A000F9D27047D2B201E000F8012B491EFBD20F
:1002B00070470022F6E710B513460A460446194671
:1002C000FFF7F0FF204610BD30B505462A460B4625
:1002D00012F8010B13F8014B08B1A042F8D01CB181
:1002E000002802D06D1CF1E7284630BD421C10F8F2
:1002F000011B0029FBD1801A7047034611F8012B1E
:1003000000F8012B002AF9D11846704730B5054690
:100310000020034600E05B1C934205D2EC5CC85C05
:10032000201A01D1002CF6D130BD2DE9FE4F8046B8
:1003300081EA0300C00F0C46009021F0004123F039
:100340000045B8EB0200A94105D24046214690463F
:100350001C460B46024623F00040104347D0270DB1
:10036000C7F30A00C3F30A510290401A01904028D3
:100370006BDAC3F3130040F4801B0098924620B15F
:100380000023D2EB030A63EB0B0B01985946C0F133
:100390004002504600F03BFA06460D46504659468C
:1003A000019A00F053FA10EB08006141002487EA3B
:1003B000115284EAE7731A4340D0009A62B3019A5B
:1003C000012A4FEA075215DC001B61EB02014FF0D6
:1003D000004202EA0752CDE90042001C41F58011BB
:1003E00032462B4600F08AFA03B0BDE8F08F404653
:1003F0002146F9E7001B61EB0201001C41F5801367
:1004000000185B412018A2F5001747EB030140EAF2
:10041000D570B6196D4111E06D084FEA360645EA10
:10042000C0754FEA0752001B61EB0201001C41F549
:10043000801149084FEA30000019514132462B46DD
:1004400003B0BDE8F04F00F04ABA00980122400026
:100450000023D0EB020263EBE073009821464FEAE1
:10046000E074B8EB000061EB0401E9E783F00043BE
:100470005BE781F0004158E72DE9FE4F81EA030474
:1004800004F0004421F0004100944FF0000B23F0F1
:10049000004350EA01045ED052EA03045BD0C3F388
:1004A0000A54C1F30A552C44A4F2F3340194A0FB7E
:1004B0000254C1F3130141F48011C3F3130343F455
:1004C000801301FB024400FB034E840A970A44EAAE
:1004D000815447EA8357A4FB076802958D0A05FB00
:1004E00007854FEA932C04FB0C542705029D4FEA25
:1004F000065847EA1637B5EB08056EEB070C870E72
:10050000920E47EA811742EA8312A7FB0201B6EB7B
:100510000B0164EB00042B0D43EA0C335E1844EB33
:100520001C50DA465146E7FB0201C5F313044FEABB
:100530000B3343EA14534FEA0432019C43EA0603A7
:10054000A4F10C040294009CCDE900B400F0D6F9AB
:1005500003B0BDE8F08F00200146F9E72DE9F04D2A
:1005600081EA030404F0004B21F0004514464FF0EB
:10057000000A23F0004150EA050220D054EA0102AB
:100580001DD0C5F30A570246C5F31303C1F3130088
:10059000C1F30A5640F4801543F48013A7EB060814
:1005A000101BD64608F2FD3873EB050002D308F1A4
:1005B000010801E092185B41B8F1000F03DA002056
:1005C0000146BDE8F08D00204FF4801106468446B8
:1005D0000EE0171B73EB050705D3121B63EB050336
:1005E00006434CEA010C49084FEA300092185B417F
:1005F00050EA0107EDD152EA030012D082EA04006A
:1006000083EA0501084305D0101BAB4106D2012245
:10061000002306E000224FF0004302E06FF00102E9
:1006200053101AEB06004CEB085110EB0A0041EB9B
:100630000B01BDE8F04D00F052B90EB5C10F80EAD4
:10064000E0700844CA07002140F233438DE80E00F1
:100650000A460B4600F052F903B000BD0EB540F259
:10066000334102910021CDE900110A460B4600F00A
:1006700045F903B000BD70B5C1F30A5201F0004561
:100680000024C1F3130140F2FF3341F480119A4278
:1006900001DA002070BD40F233439A42A2F23342A5
:1006A00003DC524200F0C2F800E090402C43F1D04D
:1006B000404270BDC1F30A5210B5C1F3130140F2BC
:1006C000FF3341F480119A4201DA002010BD40F25C
:1006D00033439A42A2F2334203DC524200F0A6F8BE
:1006E00010BD904010BD000030B5041E71F1000433
:1006F00004DB4FF00044404264EB0101141E73F12F
:10070000000405DB1C464FF00043524263EB040338
:100710008B4208BF824230BD30B5041E71F1000427
:1007200004DB4FF00044404264EB0101141E73F1FE
:10073000000405DB1C464FF00043524263EB040308
:10074000994208BF904230BD01F0004330B421F01F
:10075000004150EA010206D00A0DA2F56072C1F311
:100760001301002A02DC30BC00207047440F44EA29
:10077000C104C100E01830BC00EBC25000F078B8F2
:1007800030B50B46014600202022012409E021FA61
:1007900002F59D4205D303FA02F5491B04FA02F55E
:1007A0002844151EA2F10102F1DC30BD2DE9F05FF5
:1007B0000546002092469B468846064681464024D0
:1007C0001BE0284641464746224600F02FF8534694
:1007D0005A46C01A914110D311461846224600F0DD
:1007E00016F82D1A67EB01084F462246012000211A
:1007F00000F00DF817EB00094E41201EA4F1010492
:10080000DFDC484631462A464346BDE8F09F202AB1
:1008100004DB203A00FA02F1002070479140C2F157
:10082000200320FA03F3194390407047202A04DB89
:10083000203A21FA02F00021704721FA02F3D04059
:10084000C2F120029140084319467047202A06DB76
:10085000CB17203A41FA02F043EAE07306E041FA8E
:1008600002F3D040C2F1200291400843194670477C
:100870000029A8BF7047401C490008BF20F00100B4
:10088000704710B4B0FA80FC00FA0CF050EA010492
:1008900004BF10BC704749B1CCF1200421FA04F424
:1008A00011FA0CF118BF012121430843A3EB0C01FD
:1008B000CB1D4FEA00614FEA102042BF002010BC60
:1008C000704700EBC35010440029A4BF10BC704710
:1008D000401C490008BF20F0010010BC704710B553
:1008E000141E73F1000408DA401C41F10001921853
:1008F0005B411A4301D120F0010010BD2DE9F04DFC
:1009000092469B4611B1B1FA81F202E0B0FA80F250
:1009100020329046FFF77BFF04460F4640EA0A006C
:1009200041EA0B0153465A46084313D0114653EA95
:10093000010019D0C8F140025046FFF777FF054685
:100940000E46504659464246FFF761FF084305D020
:10095000012004E020463946BDE8F08D0020054323
:1009600046EAE0762C4337430A986305E40AA0EB95
:1009700008000022FD0A44EA47540A3002D500204C
:100980000146E9E7010510196941DDE9084500194B
:100990006941BDE8F04DA2E770B521F00043034383
:1009A0000CD0C1F30A550024D5EB040564EB040315
:1009B000D617AD1AB34102DB0020014670BD2018E6
:1009C00041EB025170BD2DE9F04D00231A461B1A70
:1009D0008A4103DB00200146BDE8F08DC1F30A52D5
:1009E000C1F3130141F480154FF0000BD10702D180
:1009F00000186D41521E0027044640F2FF11384690
:100A000001EB620A3E468046024600204FF4801108
:100A1000FFF70CFFC2197141BB1846EB0100B4EBA4
:100A2000030C75EB000C04D3E41A65EB00051746C4
:100A30000E46241908F101006D4180463428E3DD9B
:100A4000F91946EB0600091BA84103D24FF0FF320B
:100A5000134601E0002213461BEB070046EB0A5148
:100A6000BDE8F04DFFF73BBFC1F30A52C1F31301DC
:100A700040F2FF3341F480119A4202DA002001462D
:100A8000704740F233439A42A2F2334202DC5242B0
:100A9000FFF7CCBEFFF7BBBE064C074D06E0E06893
:100AA00040F0010394E8070098471034AC42F6D3B5
:100AB000FFF76EFB04FC000824FC000870B58C18DE
:100AC00010F8015B15F0070301D110F8013B2A1162
:100AD00006D110F8012B03E010F8016B01F8016B4F
:100AE0005B1EF9D12B0705D40023521E0DD401F84B
:100AF000013BFAE710F8013BCB1A921C03E013F814
:100B0000015B01F8015B521EF9D5A142D8D3002048
:100B100070BD21B1826842F00102826003E0826808
:100B200022F00102826070470021084A1168084AD9
:100B30001140D0E900231A4383681A43C3681A435B
:100B40001143044AC2F80413704700000423014013
:100B5000E030FCFF002001400146C86C80B27047C5
:100B60000246002013680B400BB1012000E000207A
:100B70007047000030B50246002000235068104C3A
:100B800020400D790C6844EA0524204350609068A9
:100B90000C4C2040D1E903542C438D682C434D79F3
:100BA00044EA450420439060D06A20F470000C7D34
:100BB000641EE4B2234340EA0350D06230BD00001B
:100BC000FFFEFFFCFDF7FFC0F0B504460D46002018
:100BD0000021092D11DDE068A5F10A0606EB4607A4
:100BE000072606FA07F18843A5F10A0606EB460632
:100BF00003FA06F10843E0600CE0206905EB4507C5
:100C0000072606FA07F1884305EB450603FA06F1C5
:100C100008432061072A0FDA606B561E06EB860731
:100C20001F2606FA07F18843561E06EB860605FACC
:100C300006F10843606322E00D2A0FDA206BD61F0D
:100C400006EB86071F2606FA07F18843D61F06EB38
:100C5000860605FA06F10843206310E0E06AA2F177
:100C60000D0606EB86071F2606FA07F18843A2F158
:100C70000D0606EB860605FA06F10843E062F0BDB4
:100C8000816841F0804181607047002101600171FD
:100C900041718160C16001610121017570470000EF
:100CA00038B10849096841F40001074AC2F8041341
:100CB00006E00449096821F40001034AC2F804135C
:100CC00070470000042301400020014010B52DEDC5
:100CD0000C8BB0EE408AF0EE608AB0EE419AF0EEF6
:100CE000619AB0EE42AAF0EE62AAB0EE43BAF0EE1C
:100CF00063BA53EC1A2B51EC180BFFF7BAFB41EC1B
:100D00001C0B53EC192B51EC1B0BFFF7AFFB41EC09
:100D10001D0BB0EE4C1AF0EE6C1AB0EE4D0AF0EE70
:100D20006D0A07F0D9FABDEC0C8B10BD70B5044606
:100D30000021F32000F06EFA054605EA040008B130
:100D4000012070BD0020FCE72DE9F0412DED028B64
:100D500000240AE0601C84B2B4F57A7F05DB9FEDC5
:100D60001D0BBDEC028BBDE8F0810820FFF7DEFF14
:100D70000028EFD1002407E0601C84B2B4F57A7F2C
:100D800002DB9FED140BECE70120FFF7CFFF0028FB
:100D9000F2D10021F92000F03DFA05460021F820AB
:100DA00000F038FA06460021F72000F033FA8046BA
:100DB0004FEA083040EA061040EA2517384609F0A5
:100DC00001FEB0EE408AF0EE608AB0EE480AF0EE26
:100DD000680AC6E70000000000A08E4070B5044617
:100DE00020784001617840EA8100A1780843C5B2CB
:100DF0002946F52000F039FA70BD70B504466078D8
:100E00004001217840EA8100A1780843C5B2294613
:100E1000F42000F02AFA70BD10B5002240210D48E0
:100E200001F02AFA06F084F800222021094801F096
:100E300023FA022009F0CCFF01224021054801F0ED
:100E40001BFA012009F0C4FF00224021014801F0F3
:100E500013FA10BD000802401CB50121042004F063
:100E600077FE6020009001208DF8040000208DF8AE
:100E7000060003208DF805006946074801F084F953
:100E800001224021044801F0F7F901222021024803
:100E900001F0F2F91CBD00000008024010B500226C
:100EA00040210D4801F0E8F906F042F80122202126
:100EB000094801F0E1F9022009F08AFF01224021EE
:100EC000054801F0D9F9012009F082FF00224021F4
:100ED000014801F0D1F910BD0008024070B5054687
:100EE00006F010F800261BE06006040E01224021E7
:100EF000104801F0C1F9042009F06AFF20210D48D3
:100F000001F0ADF9012801D1601CC4B200224021DA
:100F1000084801F0B1F9012009F05AFF701CC6B26F
:100F2000082EE1DB15B1FFF777FF01E0FFF7B6FF11
:100F3000204670BD0008024010B505F0F9FF0122FF
:100F400020210C4801F098F901224021094801F0C4
:100F500093F9042009F03CFF00222021054801F00C
:100F60008BF9042009F034FF00224021014801F0F0
:100F700083F910BD0008024010B505F0D9FF00222A
:100F800020210C4801F078F900224021094801F0A5
:100F900073F9042009F01CFF01224021054801F0EB
:100FA0006BF901222021034801F066F9042009F0C1
:100FB0000FFF10BD0008024010B505F0A3FF01228D
:100FC0002021134801F058F9012009F001FF012206
:100FD00040210F4801F050F9012009F0F9FE0AE024
:100FE000601C84B2052009F0F3FEFA2C03DDFFF744
:100FF000C3FF002010BD2021054801F030F9002872
:10100000EED100224021024801F036F90120F1E73B
:101010000008024070B5044605F08AFF0022402116
:10102000114801F029F900251BE0E20920210E48B2
:1010300001F022F96006040E022009F0C9FE012227
:101040004021094801F018F9042009F0C1FE0022EE
:101050004021054801F010F9022009F0B9FE681C92
:10106000C5B2082DE1DB70BD000802407CB5FFF77A
:10107000F3FE0021882000F0CDF8044600218920ED
:1010800000F0C8F8054604EB0520614908800021FE
:101090008A2000F0BFF8044600218B2000F0BAF847
:1010A000054604EB052000B25949488000218C20F8
:1010B00000F0B0F8044600218D2000F0ABF80546A2
:1010C00004EB052000B25249888000218E2000F0F8
:1010D000A1F8044600218F2000F09CF8054604EB9F
:1010E00005204B49C8800021902000F093F8044669
:1010F0000021912000F08EF8054604EB052000B297
:10110000434908810021922000F084F80446002120
:10111000932000F07FF8054604EB052000B23C491F
:1011200048810021942000F075F8044600219520A4
:1011300000F070F8054604EB052000B234498881C0
:101140000021962000F066F804460021972000F068
:1011500061F8054604EB052000B22D49C881002145
:10116000982000F057F804460021992000F052F82A
:10117000054604EB052000B22549088200219A208B
:1011800000F048F8044600219B2000F043F8054693
:1011900004EB052000B21E49488200219C2000F08B
:1011A00039F8044600219D2000F034F8054604EB90
:1011B000052000B21649888200219E2000F02AF8FE
:1011C000044600219F2000F025F8054604EB052089
:1011D00000B20F49C882B621E02000F046F8032093
:1011E0008DF8040001208DF8050003208DF806001D
:1011F00001A8FFF702FE00208DF8000004208DF802
:10120000010000208DF802006846FFF7E7FD7CBD75
:10121000800F002070B505460C465526FFF78CFE62
:10122000EC20FFF7F7FEFFF7C7FE012801D00120F1
:1012300070BD2846FFF7EEFEFFF7BEFE012801D085
:101240000120F5E7FFF778FEED20FFF7E3FEFFF75B
:10125000B3FE012801D00120EAE72046FFF73EFE59
:101260000646FFF789FE3046E2E770B505460C46B4
:10127000FFF762FEEC20FFF7CDFEFFF79DFE08B9F9
:10128000012070BD2846FFF7C5FEFFF795FE012837
:1012900001D00120F5E72046FFF7BCFEFFF78CFEEA
:1012A000012801D00120ECE7FFF766FE0020E8E707
:1012B0001CB50121022004F04BFC012000908DF8A8
:1012C000040000208DF8060003208DF805000120A1
:1012D0008DF807006946044800F056FF01210248D6
:1012E00000F0C8FF1CBD0000000402401CB5012036
:1012F000009000208DF804008DF80700694604482E
:1013000000F042FF0121024800F0B4FF1CBD0000C4
:101310000004024010B50A2004F0F2FD10BD0000E8
:1013200010B540F6FF71052002F0F8F800F0BEFE9F
:101330001FA006F027FE0BF051FF1021244800F0FB
:1013400097FF2021224800F093FFFFF7E3FF03F00F
:10135000CBFF06F011FE03F09DFD02F0B7FE03F097
:1013600052FF00F057F806F0E1F8FFF77FFE00F0BB
:10137000A5FD0021174806F0D2FA02F0ABFEFFF7F8
:1013800097FFFFF7B3FF04F097FC0DF08FF80020F4
:101390001149087028200AF03DFC1049086010210E
:1013A0000B4800F067FF2021094800F063FF10BDE3
:1013B0000A0A0A0A0A0A0A0A0A0ACFB5CDB3C6F40B
:1013C000B6AF0A0A0A0A0A0A0A0A0A0A0A0000004A
:1013D00000000240000800406A01002020020020B6
:1013E00000BFFEE710B501F0F7FD3C2001F0BAFDAB
:1013F00001F02CFE08B1012010BD0020FCE7000028
:1014000010B54FF496710248FEF753FF10BD00006F
:10141000EA09002010B501F033FDFFF7E3FF20B12A
:101420000AA006F0AFFD002010BD0BA006F0AAFD3B
:101430007121002001F0B6FC2021012001F0B2FC56
:101440000121022001F0AEFC00BFEDE7C6F7BCFEB3
:10145000CEDED3A6B4F00A00C6F7BCFED3A6B4F025
:101460000A00000070B52DED0C8B9FEDFE0BB0EE69
:10147000408AF0EE608A9FEDFB0BB0EE409AF0EEF2
:10148000609A9FEDF80BB0EE40AAF0EE60AA9FEDD7
:10149000F50BB0EE40BAF0EE60BA002400256FF014
:1014A0008B000BF0D3FD70E001F010FCEF4890EDE5
:1014B000001BB0EE410AF0EE610A53EC102B51EC28
:1014C000180BFFF711F903D2E84890ED000B03E089
:1014D000B0EE480AF0EE680AB0EE408AF0EE608A9C
:1014E000E24890ED001BB0EE410AF0EE610A53ECC9
:1014F000102B51EC190BFFF70FF903D2DB4890EDDD
:10150000000B03E0B0EE490AF0EE690AB0EE409A33
:10151000F0EE609AD54890ED021BB0EE410AF0EE75
:10152000610A53EC102B51EC1A0BFFF7DDF803D2D4
:10153000CE4890ED020B03E0B0EE4A0AF0EE6A0AE4
:10154000B0EE40AAF0EE60AAC84890ED021BB0EEE3
:10155000410AF0EE610A53EC102B51EC1B0BFFF724
:10156000DBF803D2C14890ED020B03E0B0EE4B0A6A
:10157000F0EE6B0AB0EE40BAF0EE60BABCA006F036
:1015800001FD6D1C64200CF00BFC642D8CDD002033
:101590000BF05CFD53EC192B51EC180BFEF7C5FE5C
:1015A00041EC1C0B9FEDB50B53EC102BFEF7D6FF57
:1015B000B44A03C253EC1B2B51EC1A0BFEF7B5FED9
:1015C00041EC1C0B9FEDAD0B53EC102BFEF7C6FF4F
:1015D000AC4AC2E902019FEDAC0B104680ED040B52
:1015E00053EC1B2B51EC1A0BFEF740FF41EC1C0B8C
:1015F00053EC192B51EC180BFEF738FF41EC1D0B87
:1016000053EC1C2BFEF7AAFF9E4AC2E906010025F7
:101610006FF08B000BF01AFDE9E103F0C9FD01F05A
:1016200055FB984890ED002BB0EE420AF0EE620AAE
:101630008E4890ED002BB0EE421AF0EE621A53EC99
:10164000102B51EC110BFEF711FF41EC1C0B8D48D8
:1016500090ED041BB0EE410AF0EE610A53EC102B42
:1016600051EC1C0BFEF708FF804A03C2854890ED41
:10167000022BB0EE420AF0EE620A7C4890ED022B9B
:10168000B0EE421AF0EE621A53EC102B51EC110B33
:10169000FEF7ECFE41EC1C0B7A4890ED061BB0EE19
:1016A000410AF0EE610A53EC102B51EC1C0BFEF7D3
:1016B000E3FE6E4AC2E90201104690ED002BB0EE47
:1016C000421AF0EE621A90ED022BB0EE420AF0EEF2
:1016D000620A06F001FEB0EE40DAF0EE60DA9FED4D
:1016E0006C0B53EC102B51EC1D0BFEF7C5FE41ECBF
:1016F0001C0B9FED690B53EC102BFEF716FE5B4A9B
:10170000C2E90601104690ED061BB0EE410AF0EE6C
:10171000610A9FED631B53EC112B51EC100BFEF78C
:10172000FBFF11D8514890ED061BB0EE410AF0EED8
:10173000610A9FED5B1B53EC112B51EC100BFEF774
:1017400095FE4A4AC2E90601484890ED061BB0EEF4
:10175000410AF0EE610A9FED431B53EC112B51EC53
:10176000100BFEF7D9FF11D2404890ED061BB0EEEA
:10177000410AF0EE610A9FED4C1B53EC112B51EC2A
:10178000100BFEF7B1FF01D244F00104374890ED91
:10179000061BB0EE410AF0EE610A9FED431B53ECCD
:1017A000112B51EC100BFEF7B7FF11D22F4890ED23
:1017B000061BB0EE410AF0EE610A9FED3D1B53ECB3
:1017C000112B51EC100BFEF78FFF01D244F00204F5
:1017D000264890ED061BB0EE410AF0EE610A9FED3F
:1017E000341B53EC112B51EC100BFEF795FF11D26B
:1017F0001E4890ED061BB0EE410AF0EE610A9FED27
:101800002E1B53EC112B51EC100BFEF76DFF01D288
:1018100044F00404154890ED061BB0EE410AF0EECA
:10182000610A9FED251B53EC112B51EC100BFEF7B9
:1018300073FF11D20D4890ED061BB0EE410AF0EE99
:10184000610A9FED1F1B53EC112B51EC100BFEF79F
:101850004BFF01D244F00804044890ED061BB0EEA3
:10186000410A31E00000000000000000400F0020AD
:10187000636865636B2E2E2E2E2E00000000000084
:1018800000000040600F0020000000000000F03F5A
:10189000775AF01ADCA54C4000000000008066403A
:1018A00000000000008076400000000000003E4084
:1018B0000000000000004E40000000000080564084
:1018C0000000000000005E40F0EE610A1FED041B06
:1018D00053EC112B51EC100BFEF71EFF11D25048A8
:1018E00090ED061BB0EE410AF0EE610A9FED4D1B34
:1018F00053EC112B51EC100BFEF7F6FE01D244F025
:101900001004474890ED061BB0EE410AF0EE610A64
:101910009FED441B53EC112B51EC100BFEF7FCFE1A
:1019200011D23F4890ED061BB0EE410AF0EE610A7D
:101930001FED271B53EC112B51EC100BFEF7D4FEBF
:1019400001D244F02004364890ED061BB0EE410A67
:10195000F0EE610A9FED351B53EC112B51EC100B8F
:10196000FEF7DAFE11D22E4890ED061BB0EE410ACA
:10197000F0EE610A9FED2F1B53EC112B51EC100B75
:10198000FEF7B2FE01D244F04004254890ED061B5C
:10199000B0EE410AF0EE610A9FED281B53EC112BCB
:1019A00051EC100BFEF7B8FE11D21D4890ED061B4E
:1019B000B0EE410AF0EE610A9FED221B53EC112BB1
:1019C00051EC100BFEF790FE01D244F08004144855
:1019D00090ED061BB0EE410AF0EE610A53EC102BBD
:1019E0001AA006F0CFFA6D1C64200CF0D9F9642D12
:1019F0007FF713AEFF2C06D101201949087019A0FA
:101A000002F0A0FA05E026A002F09CFA002014499A
:101A10000870002400200BF019FBBDEC0C8B70BD8E
:101A2000400F00200000000000C0624000000000E5
:101A300000406F4000000000008071400000000086
:101A400000C072400000000000A074404375726541
:101A50006E745F416E676C653D256C660A00000020
:101A60006001002041542B514D545055423D302CC3
:101A7000302C302C302C227075626C6963222C441F
:101A8000656275675F736869705F436F6D706173DE
:101A9000735F5375636365737366756C230D0A001A
:101AA00041542B514D545055423D302C302C302C4C
:101AB000302C227075626C6963222C4465627567F4
:101AC0005F736869705F436F6D706173735F657298
:101AD000726F72230D0A00002DE9F0412DED048B89
:101AE000064628200AF096F80446274601256BE1B1
:101AF000BA4850F825006060B5427CD12760B748ED
:101B000050F825006060B5484068B54901EB001009
:101B100090ED000B84ED060BB048406801EB00101F
:101B200090ED020B84ED080BAC4850F8250001EB5A
:101B3000001090ED022BB0EE421AF0EE621AA748A8
:101B400050F8250001EB001090ED002BB0EE420A9A
:101B5000F0EE620AA349A1F1080002F0C1FA9F4821
:101B600040689F4901EB001090ED022BB0EE421A45
:101B7000F0EE621A9948406801EB001090ED002BDE
:101B8000B0EE420AF0EE620A96491039A1F108005F
:101B900002F0A6FA9348503890ED104BB0EE443A5C
:101BA000F0EE643A90ED0E4BB0EE442AF0EE642A6B
:101BB00090ED144BB0EE441AF0EE641A90ED124B17
:101BC000B0EE440AF0EE640A00F076FAB0EE408A15
:101BD000F0EE608A9FED840B53EC102B51EC180B48
:101BE000FEF7BCFCC4E904017E48503890ED104B70
:101BF000B0EE443A00E030E0F0EE643A90ED0E4B87
:101C0000B0EE442AF0EE642A90ED144BB0EE441A84
:101C1000F0EE641A90ED124BB0EE440AF0EE640A56
:101C2000FFF754F8B0EE409AF0EE609A9FED700B1B
:101C300053EC102B51EC190BFEF790FC41EC180BF8
:101C40009FED6D0B53EC102BFEF716FCC4E902015F
:101C500004F1080009F084F8B9E06049681C51F803
:101C600020005F4901EB001090ED000B84ED060BA6
:101C70005A49681C51F82000594901EB001090EDB9
:101C8000020B84ED080B554850F8250001EB0010BD
:101C900090ED022BB0EE421AF0EE621A4F4850F867
:101CA000250001EB001090ED002BB0EE420AF0EEA3
:101CB000620A4C49A1F1080002F012FA4749681C77
:101CC00051F82000464901EB001090ED022BB0EED8
:101CD000421AF0EE621A4149681C51F8200040494E
:101CE00001EB001090ED002BB0EE420AF0EE620A1C
:101CF0003C491039A1F1080002F0F2F93948503896
:101D000090ED104BB0EE443AF0EE643A90ED0E4B8D
:101D1000B0EE442AF0EE642A90ED144BB0EE441A73
:101D2000F0EE641A90ED124BB0EE440AF0EE640A45
:101D300000F0C2F9B0EE408AF0EE608A9FED2A0B07
:101D400053EC102B51EC180BFEF708FCC4E904010E
:101D50002448503890ED104BB0EE443AF0EE643A1F
:101D600090ED0E4BB0EE442AF0EE642A90ED144B49
:101D7000B0EE441AF0EE641A90ED124BB0EE440A45
:101D8000F0EE640AFEF7A2FFB0EE409AF0EE609A21
:101D90009FED170B53EC102B51EC190BFEF7DEFBEC
:101DA00041EC180B9FED140B53EC102BFEF764FB6A
:101DB000C4E9020104F1080008F0D2FF282009F06C
:101DC00029FF206024686D1CB5427FF791AE00BFEB
:101DD0003846BDEC048BBDE8F0810000F004002023
:101DE00080010020B80400200000000000408F4067
:101DF00000000060FB2109400000000000806640F8
:101E000010B5002400F024F804E0601CC4B20120E6
:101E100009F05EF80D48006808B1642CF5DB642C0D
:101E200001DB012010BD002404E0601CC4B20120CD
:101E300009F04EF80548006808B9642CF5DB642CFD
:101E400001DB0120EEE70020ECE700003002404219
:101E50001CB50121084603F07BFE4FF48050009032
:101E600000208DF8040001208DF8060003208DF875
:101E7000050001208DF807006946024800F084F94A
:101E80001CBD0000000002401CB50121084603F003
:101E90005FFE4FF48050009001208DF804008DF813
:101EA000060003208DF8050001208DF80700694623
:101EB000014800F069F91CBD000002401CB5012179
:101EC000084603F045FE4FF48050009001208DF845
:101ED00004008DF8060003208DF8050001208DF820
:101EE00007006946064800F04FF94FF48051044856
:101EF00000F0C0F900F068F8FFF782FF1CBD000099
:101F00000000024010B5002404E0601CC4B20120AF
:101F100008F0DEFF0D48006808B1642CF5DB0024F2
:101F200004E0601CC4B2012008F0D2FF074800683A
:101F300008B9642CF5DB282008F0CAFF03480068C4
:101F400008B1012010BD0020FCE700003002404233
:101F500070B50024002506E06006040EFFF7D2FFEE
:101F60000443681CC5B2082DF6DB204670BD7CB565
:101F700005460E4600F028F8FFF742FFF8B90024A6
:101F800005E0FFF7E5FF0DF80400601CC4B2052C66
:101F9000F7DB9DF800009DF8011008449DF8021041
:101FA00008449DF8031008449DF80410884208D1A5
:101FB0009DF8000030709DF80200287001E00120BB
:101FC0007CBD0020FCE7000010B5FFF75DFF00209E
:101FD00006490860142008F071FF01200449C1F887
:101FE000B0021E2008F074FF10BD0000B002404295
:101FF000000040427047000000B587B0012108464C
:1020000003F0A6FD0121102003F0C2FD00208DF891
:102010001A0001208DF81B0002208DF819008DF8A0
:1020200018000002059005A91E4800F0ADF8022036
:102030008DF818004002059005A91A4800F0A4F890
:1020400007220A21174800F0E7F80722092115485E
:1020500000F0E2F84FF4E13001900020ADF8080004
:10206000ADF80A00ADF80C00ADF810000C20ADF88A
:102070000E0001A90C4805F063FE03F0C9F8012227
:1020800040F22551084805F035FE012240F2244176
:10209000054805F02FFE0121034805F0E8FD07B0D3
:1020A00000BD0000000002400010014010B5FFF725
:1020B000A3FF01F017F810BD10B52DED108BB0EE99
:1020C000408AF0EE608AB0EE419AF0EE619AB0EE8E
:1020D00042AAF0EE62AAB0EE43BAF0EE63BA53EC55
:1020E000192B51EC1B0BFEF7C1F941EC1F0B9FEDB7
:1020F000181BB0EE4F0AF0EE6F0A06F055FAB0EE7C
:1021000040DAF0EE60DA53EC1A2B51EC180BFEF7C4
:10211000B0F941EC1F0B9FED0E1BB0EE4F0AF0EE35
:102120006F0A06F041FAB0EE40EAF0EE60EA53ECD6
:102130001D2B51EC1E0BFEF7F8F841EC1C0BB0EE1A
:102140004C0AF0EE6C0A07F0AFF8BDEC108B10BD36
:1021500000000000000000402DE9F04104460D465B
:10216000282009F057FD0646002705E0266820468E
:1021700008F0AEFF34467F1C681EB842F6DC3046DD
:1021800008F0A6FFBDE8F081F0B50A460021002363
:10219000002400BF3DE0012505FA01F3156805EABA
:1021A00003049C4234D105684F000326BE40B5436A
:1021B000056015794E00B540066835430560157910
:1021C000012D02D01579022D16D185684F00032606
:1021D000BE40B543856055794E00B54086683543AD
:1021E0008560456801268E40B5434560456896790F
:1021F0008E40B6B235434560C5684F000326BE40E9
:10220000B543C560D5794E00B540C6683543C56055
:10221000491C1029BFD3F0BDF0B5002300244D07A1
:10222000ED0E02FA05F3CE1000F1200555F8265008
:102230004E07F70E0F26BE40B543CF1000F1200623
:1022400046F82750CE1000F1200555F8265045EAF3
:102250000304CE1000F1200545F82640F0BD0246EB
:10226000002013690B400BB1012000E000207047F3
:1022700041837047018370470AB1018300E04183C5
:102280007047000010B50446072301222146084884
:10229000FEF79AFC0648FEF7F3FC00BF0221044853
:1022A000FEF75EFC0028F9D00148FEF755FC10BD92
:1022B0000020014070B52DED0A8B0A20FFF7E2FFE8
:1022C00005462846FEF7CAF941EC1A0B9FED200B94
:1022D00053EC102BFEF742F941EC190B9FED1E0B4E
:1022E00053EC102BFEF7C8F841EC180B9FED1C0BBC
:1022F00053EC102B51EC180BFEF70EFA24D853ECCC
:10230000182B9FED150B51EC100BFEF7AFF841ECBD
:102310001C0B9FED150B53EC102BFEF71FF941EC36
:102320001B0B9FED130B53EC102BFEF7A2F841ECA7
:102330001A0B9FED110B53EC102BFEF79DF841EC9F
:10234000190BFEF7B7F9C4B22046BDEC0A8B70BD7D
:10235000000000000000B0406666666666660A40DF
:102360000000000000000840303333333333D33FE4
:10237000000000000000F03F000000000000594095
:1023800070B52DED108B86B005460024FEA12846C1
:10239000FDF79AFFFD4908600846006800287CD0D8
:1023A00000BF06E0F9480168A01C085CF849085520
:1023B000641C092CF6DBF7A12846FDF785FFF349DD
:1023C00008600846006858B1002407E0EF4801683B
:1023D000A01C095CEE480A300155641C0A2CF5DB90
:1023E000EB49C97CA1F13000FEF727F99FEDEA0B1C
:1023F00053EC102BFEF7B2F841EC190BE449897C41
:10240000A1F13000FEF719F99FEDE50B53EC102B0D
:10241000FEF7A4F8CDE90201DD49497CA1F13000C5
:10242000FEF70BF99FEDE00B53EC102BFEF796F83F
:1024300041EC1C0BD649097CA1F13000FEF7FDF8F8
:102440009FEDDB0B53EC102BFEF788F841EC1D0BD6
:10245000CF49897B3039CE4A527B303A02EB820237
:1024600001EB4200FEF7E9F853EC1D2BFDF75DFF91
:1024700053EC1C2BCDE900019DED000B51EC100B32
:10248000FDF753FF9DED020B53EC102BFDF74DFFB5
:1024900053EC192BFDF749FF00E0A2E1CDE904015F
:1024A000BB49897A303942F2107211FB02F2B84905
:1024B000C97A303901EB4103C3EBC11102EBC10210
:1024C000B349097B303901EBC10303EB011102EB86
:1024D0008100FEF7B2F89DED040B53EC102BFDF7D5
:1024E00024FFAB4AC2E908011146097AA1F1300084
:1024F000FEF7A3F89FEDA80B53EC102BFEF72EF878
:1025000041EC190BA249C979A1F13000FEF795F809
:102510009FEDA30B53EC102BFEF720F841EC1B0BA7
:102520009B498979A1F13000FEF787F89FED9E0B5A
:1025300053EC102BFEF712F8CDE9020194494979CA
:10254000A1F13000FEF779F89FED990B53EC102BB9
:10255000FEF704F841EC1E0B8D49C978A1F130005B
:10256000FEF76BF853EC1E2BCDE900019DED000B3F
:1025700051EC100BFDF7D9FE9DED020B53EC102B27
:10258000FDF7D3FE53EC1B2BFDF7CFFE53EC192BBD
:10259000FDF7CBFE41EC180B7D498978A1F13000A5
:1025A000FEF74BF89FED820B53EC102BFDF764FF09
:1025B00041EC190B7649097830394FF47A7211FBE6
:1025C00002F273494978303901EBC10303EB011181
:1025D00002EB8100FEF731F853EC192BFDF7A5FE55
:1025E00053EC182BCDE904019DED040B51EC100BBD
:1025F000FDF79BFE664AC2E90601104690ED081BF6
:10260000B0EE410AF0EE610A9FED671B53EC112B0F
:1026100051EC100BFDF7A2FFFEF72DF80646FEF772
:102620000CF841EC1C0B5A4890ED081BB0EE410A27
:10263000F0EE610A9FED5C1B53EC112B51EC100B7B
:10264000FDF78CFF53EC1C2BFDF710FF9FED560B95
:1026500053EC102BFDF710FF9FED570B53EC102B95
:10266000FDF77CFF41EC180B494890ED081BB0EEDC
:10267000410AF0EE610A9FED4C1B53EC112B51EC1B
:10268000100BFDF76BFFFDF7F6FF0646FDF7D5FFD4
:1026900053EC182BFDF749FE3D4AC2E908011046EC
:1026A00090ED061BB0EE410AF0EE610A9FED3E1B75
:1026B00053EC112B51EC100BFDF750FFFDF7DBFF36
:1026C0000646FDF7BAFF41EC1C0B314890ED061BA6
:1026D000B0EE410AF0EE610A9FED331B53EC112B73
:1026E00051EC100BFDF73AFF53EC1C2BFDF7BEFE2F
:1026F0009FED2D0B53EC102BFDF7BEFE9FED2E0B27
:1027000053EC102BFDF72AFF41EC190B204890EDFC
:10271000061BB0EE410AF0EE610A9FED231B53EC5D
:10272000112B51EC100BFDF719FFFDF7A4FF064626
:10273000FDF783FF53EC192BFDF7F7FD144AC2E9AF
:10274000060102F1180101F108000BF0F3FE104838
:102750000A3000210160416001810A210A38FDF739
:10276000A8FD0B4890ED081BB0EE410AF0EE610A9F
:1027700053EC102B12A10A3005F014FC044890ED24
:10278000061BB0EE410A1FE0412C0000640200204D
:10279000A80E00204E2C0000000000000088C3405E
:1027A0000000000000408F40000000000000594081
:1027B00000000000000024400000000000004E4027
:1027C000252E366C66000000F0EE610A53EC102BEB
:1027D000AFF2140105F0E6FB0548064908600A302F
:1027E0004860FEF70DFE06B0BDEC108B70BD00001A
:1027F000A80E0020D00E002070B50024002505E0B2
:102800000B20FFF73FFD0444681CC5B2052DF7DB24
:102810000520B4FBF0F4B4F57A6F01D94FF47A6473
:102820002820B4FBF0F0C0B270BD000010B52DED53
:10283000088B0C20FFF726FD0446214615A005F065
:10284000A1FBB4F5FA6F01DB4FF4FA642046FDF703
:1028500005FF41EC1B0B9FED130B53EC102BFDF709
:102860007DFE41EC1A0B9FED110B53EC102BFDF785
:1028700000FE41EC190B9FED0F0B53EC102BFDF7F5
:10288000FBFD41EC180BB0EE480AF0EE680ABDEC17
:10289000088B10BD616463342076616C3A20256436
:1028A0000D0900000000000000409F4000000000F3
:1028B0000000F03F000000000000594010B52DED71
:1028C000088B0E20FFF7DEFC0446214618A005F019
:1028D00059FB2046FDF7C2FE41EC1B0B9FED180B88
:1028E00053EC102BFDF73AFE41EC1A0B9FED160B43
:1028F00053EC102BFDF7C0FD41EC180B53EC182BDB
:102900009FED130B51EC100BFDF7B6FD41EC1A0BCC
:102910009FED110B53EC102BFDF707FD41EC190B4C
:10292000B0EE490AF0EE690ABDEC088B10BD00005C
:102930000D0A4144433134203D2025640D0A000036
:10294000000000000000B0406666666666660A40E9
:10295000508D976E120317C0D122DBF97EAA324048
:1029600070B52DED068B1020FFF78CFC0546284630
:10297000FDF774FE41EC1A0B9FED210B53EC102B6D
:10298000FDF7ECFD41EC190B9FED1F0B53EC102BE9
:10299000FDF772FD41EC180B9FED1D0B53EC102B56
:1029A00051EC180BFDF762FD41EC1A0B9FED1A0B71
:1029B00053EC102BFDF7D2FD41EC190B9FED180BDA
:1029C00053EC102BFDF7B1FC41EC180B9FED160BEF
:1029D00053EC102B51EC180BFDF74EFD41EC180B8E
:1029E00041EC190BFDF747FE04B2642094FBF0F0B4
:1029F00004B200EE104AB8EEC00ABDEC068B70BD02
:102A0000000000000000B0406666666666660A4028
:102A100052B81E85EB51E83F7B14AE47E17A643F24
:102A20000000000000003940000000000000594094
:102A30002FE018480068401C1649086008460068E6
:102A40000F21B0FBF1F201FB120018B912A001F046
:102A500079FA17E00F4800681421B0FBF1F201FB8E
:102A6000120060B90E48007802280BD10D4A0EA161
:102A7000194805F097FA184801F064FA02E017A027
:102A800001F060FA1BA005F07DFA4FF47A700BF0AC
:102A900087F9CEE77401002041542B4353510000C5
:102AA00060020020E009002041542B514D54505544
:102AB000423D302C302C302C302C227075626C69E9
:102AC00063222C5369676E616C207175616C697447
:102AD000792025730D0A00002004002041542B5159
:102AE000474E535352443D224E4D45412F524D4384
:102AF0002200000041545F524D430A008CB081E037
:102B00004FF0FF3202A9404800680CF0D1F802F003
:102B10004FFB02A802F01EFF02A8FFF731FC3B4862
:102B200000880F285EDB3A480088B0B99FED390B6A
:102B30003A4880ED000B3A4890ED000B394880EDA3
:102B4000000B9FED340B384880ED000B374890EDBB
:102B5000000B374880ED000B3FE036480078012835
:102B600014D19FED350B364880ED000B9FED320BF5
:102B7000344880ED000B9FED340B354880ED000BA1
:102B80009FED310B334880ED000B16E029480078AB
:102B900098B99FED310B2A4880ED000B9FED2E0B6D
:102BA000284880ED000B9FED2E0B294880ED000B8F
:102BB0009FED2B0B274880ED000B194890ED000B83
:102BC00008F000FE164880ED000B184890ED000B51
:102BD00008F070FE154880ED000B0D480088401C81
:102BE0000B4908800E4890ED000B8DED000B0F484F
:102BF00090ED000B53EC102B1BA005F0C3F90A203D
:102C00000BF0CEF87CE700005C020020C002002040
:102C100078010020333333333333D33FD0000020E7
:102C200078000020C8000020E8000020800000207C
:102C3000E00000206A0100208DEDB5A0F7C6B03E8F
:102C4000A8000020B00000200000000000000440A8
:102C5000B8000020C000002092CB7F48BF7D4D3FD0
:102C60009A9999999999A93F256C662C256C6620AB
:102C70000A00000070B506460C46154600F0ACF997
:102C80003C2000F06FF900F0E1F9304600F06AF9FD
:102C900000F0DCF900F0A0F93D2000F063F900F04D
:102CA000D5F90DE0012D04D1002000F033F920709A
:102CB00003E0012000F02EF92070681EC5B2641CEC
:102CC000002DEFD100F0A2F9002070BD2DE9F041F8
:102CD0002DED028B82B07021002000F063F82021DE
:102CE000012000F05FF80121022000F05BF80622CD
:102CF00069460320FFF7BEFF9DF800404FF6FF70C6
:102D000000EA04249DF8010004439DF802804FF678
:102D1000FF7000EA08289DF8030040EA08089DF8C3
:102D200004504FF6FF7000EA05259DF805000543A5
:102D3000B4F5004F05DD4FF6FF70001B401C464206
:102D400000E02646B5F5004F05DD4FF6FF70401B4D
:102D5000401C474200E02F463046FDF76EFC41EC38
:102D6000180B9FED0D0B53EC102BFDF7F7FB0C4AE6
:102D700003C23846FDF761FC41EC180B9FED060BD2
:102D800053EC102BFDF7EAFB054AC2E9020102B041
:102D9000BDEC028BBDE8F08100000000000891400E
:102DA000400F002070B504460D4600F015F93C2098
:102DB00000F0D8F800F04AF9E0B200F0D3F800F0E3
:102DC00045F9284600F0CEF800F040F900F01EF971
:102DD00070BD000008A001F0B5F80CE00BF066FB38
:102DE00010211048FFF744FA20210E48FFF740FA5F
:102DF0000DA005F0C7F8F1E741542B514D54505543
:102E0000423D302C302C302C302C227075626C6995
:102E100063222C44656275675F736869705F6465DF
:102E20006C0D0A00000002407965730A0000000082
:102E300010B51048006820F440400E49086008466C
:102E4000006840F48040086000200B49086008F0EA
:102E50001DFC01200949C1F8980208F017FC002068
:102E60000549091F086008F011FC01200349C1F859
:102E70009C0210BD000402409C82404200804042FF
:102E80001CB50121022002F063FEC0200090012049
:102E90008DF8040000208DF8060002208DF8050052
:102EA00001208DF8070069460548FFF76DF90120FC
:102EB000044908600449C1F8980200F0A7F81CBD55
:102EC000000402409C8240420080404210B50E48FF
:102ED000006820F440400C4908600846006840F44F
:102EE0008040086001200949086008F0CFFB0120FC
:102EF0000749C1F8980208F0C9FB00200349091FDF
:102F0000086008F0C3FB10BD000402409C824042F0
:102F10000080404270B50546002614E06006040EAD
:102F200001200E49086008F0B1FB0D48D0F81C02E2
:102F3000012801D1601CC4B200200849086008F0D3
:102F4000A5FB701CC6B2082EE8DB15B1FFF770FFB9
:102F500001E0FFF7BBFF204670BD000098824042B1
:102F60000080404270B504461848006820F4404094
:102F7000164908600846006840F480400860002553
:102F800020E004F0800018B101201149086002E03F
:102F900000200F49086008F079FB01200C49091F47
:102FA000086008F073FB00200A49C1F89802072D59
:102FB00002D10120064908606006040E08F066FB95
:102FC000681CC5B2082DDCDB70BD000000040240A7
:102FD0009C8240420080404210B5012009490860AF
:102FE0000949C1F8980208F051FB00200549086022
:102FF00008F04CFB00200449C1F8980208F046FB99
:1030000010BD00009C8240420080404210B50C4838
:10301000006820F440400A4908600846006840F40F
:103020008040086000200749086001200649C1F877
:10303000980208F02BFB01200249086010BD000037
:10304000000402409C8240420080404210B50024AF
:103050001748006820F44040154908600846006899
:1030600040F48040086000201249086008F00EFB20
:1030700001201149C1F89C0208F008FB01200D490C
:10308000086009E0601CC4B2FA2C03DDFFF7BEFF44
:10309000012010BD08F0FAFA06487C3800680028C4
:1030A000F0D10449086008F0F1FA0020F1E70000CF
:1030B00000040240988240420080404208B54FF42C
:1030C000A06002F007F927208DF8000001208DF89C
:1030D00001008DF802008DF80300684602F0BEF88A
:1030E00008BD000000B587B00121022002F030FDCC
:1030F0000121880402F03CFD00208DF81A00012017
:103100008DF81B0002208DF819008DF81800400280
:10311000059005A91E48FFF737F802208DF8180022
:103120008002059005A91A48FFF72EF807220B2107
:103130001748FFF771F807220A211548FFF76CF8C6
:103140004FF4E13001900020ADF80800ADF80A001E
:10315000ADF80C00ADF810000C20ADF80E0001A980
:103160000C4804F0EDFDFFF7A9FF012240F22551C4
:10317000084804F0BFFD012240F22441054804F054
:10318000B9FD0121034804F072FD07B000BD000045
:10319000000402400048004094B010E18848B0F8B4
:1031A0005A020121B1EBD03FF7D100208449B1F898
:1031B0005A12C1F30E01824A50544FF4967102F52F
:1031C0009670FDF776F87E4901F59670FDF795F853
:1031D0007CA17F4807F0AEFE00286ED07DA17C4820
:1031E000FDF772F88049086008460068002879D029
:1031F0007EA27749684607F081FE7EA1684607F007
:1032000099FE30B17BA004F0BDFE01207D4908701D
:103210006CE07DA1684607F08DFE70B10BF046F9B9
:1032200079A004F0AFFE002009F032FF002009F081
:103230000DFF02207349087058E076A1684607F038
:1032400079FE30B173A004F09DFE03206D49087033
:103250004CE073A1684607F06DFE30B170A004F039
:1032600091FE04206749087040E070A1684607F0AD
:1032700061FE70B172A004F085FE052061490870FE
:1032800010217148FEF7F4FF20216F48FEF7F0FF90
:103290002CE06EA1684607F04DFE78B170A004F0F6
:1032A00071FE06205749087010216748FEF7E2FFBB
:1032B00020216548FEF7DEFF18E058E060A168466F
:1032C00007F038FE78B15EA004F05CFE05204D49A1
:1032D000087010215C48FEF7CBFF20215A48FEF70A
:1032E000C7FF03E055E061A004F04CFE62A1684610
:1032F00007F020FE30B101206249087062A004F09E
:1033000041FE13E063A1684607F014FE30B10120CE
:10331000644908705CA004F035FE07E062A16846CD
:1033200007F008FE10B101206449087064A16846E6
:1033300007F000FE38B164480078401C624908700C
:1033400062A004F01FFE63A1684607F0F3FD00B31E
:103350000BF0ACF861A004F015FE002009F098FE17
:10336000002009F073FE01206049087011E060A19F
:10337000174807F0DFFD60B15FA21549604807F00C
:10338000BDFD04215E4809F051FE5D495DA004F0D9
:10339000F9FD0B48B0F85A0220F400400849A1F8A2
:1033A0005A020846B0F85A026FF30E00A1F85A020A
:1033B00000231A461946544800680BF0A7FBEDE6B7
:1033C000EA0900202B514D5452454356000000009D
:1033D000160B00207468696E672E736572766963D8
:1033E000652E72756E0000006C02002070617261C3
:1033F0006D730000736869705F666F7277617264E5
:10340000000000006C010020736869705F73746FC6
:1034100070000000736869705F726F74617465009A
:10342000736869705F4750530000000073686970EB
:103430005F6374726C5F6D6F64653A30000000000A
:10344000736869705F6A7300000002407368697096
:103450005F6374726C5F6D6F64653A3100000000E9
:10346000736869705F4D4355000000006572726FAC
:103470007220636D640A0000736869705F73746121
:1034800072740000BE020020736869705F7374611B
:1034900072740A0072656D6F76654D61726B65724C
:1034A00073000000BD02002072656D6F7665616C6F
:1034B0006C6D61726B65727300000000BF020020CA
:1034C0006265617473000000C2020020626561746D
:1034D000730A0000726573746172740073686970B6
:1034E0005F726573746172740000000060000020F8
:1034F0002B435351000000002B4353513A0000006E
:10350000E009002025730A00540000204CF6CC404E
:1035100001490860704700000030004070B5054662
:103520000C4645F2555000F01FF8284600F010F800
:10353000204600F013F800F003F8FFF7E7FF70BD36
:103540004AF6AA2001490860704700000030004098
:103550000149486070470000003000400149886020
:1035600070470000003000400149086070470000CB
:1035700000300040F2E07A48007802287ED1794895
:103580000078062808D110217748FEF773FE202125
:103590007548FEF76FFE0BE072480078052807D1EA
:1035A00010217148FEF764FE20216F48FEF760FE8F
:1035B0006EA004F0E7FC6F480068401C6D4908608D
:1035C0006D480078002864D128216C48FCF771FE12
:1035D0006B4842680168694801F05EFD3C2169481A
:1035E000FCF767FE654A68A1664804F0DBFC6148A9
:1035F00000680E21B0FBF1F201FB1200002819D186
:1036000028216948FCF755FEFEF754FE0446214682
:10361000654801F0DDFC0A2C02DC64A000F092FC9D
:1036200046215848FCF745FE5F4A57A1554804F02B
:10363000B9FC27E04F4800680F21B0FBF1F201FB15
:10364000120000281ED128216748FCF732FEFFF740
:1036500087F9BCEEC00A10EE100AC5B229466248CE
:1036600001F0E8FC4B2D02DB60A000F06BFC462172
:103670004448FCF71EFE5C4A43A100E05FE041487D
:1036800004F090FC3F4968A004F07CFC3D4800F049
:1036900059FC3848007800F0030010B963A000F02E
:1036A00051FC344800680521B0FBF1F201FB120027
:1036B000002841D16B480078002803DD00206949CB
:1036C000087039E02C480078B0BB26480078032801
:1036D00032D010212448FEF7CBFD20212248FEF7EE
:1036E000C7FD0AF019FA604800680AF0F5FD5F4866
:1036F00000680AF0F1FD5E4800680AF0EDFD0AF08E
:1037000047FA022008F04EF90AF006FA5648006817
:103710000AF018FD554800680AF014FD5448006886
:103720000AF010FD0AF034FA10210F48FEF7A2FD4E
:1037300020210D48FEF79EFDFDF762FE0AE04DA038
:1037400004F020FC10210848FEF792FD20210648D5
:10375000FEF78EFD41F288300AF022FB0BE70000F5
:10376000600200206C01002000000240656D71784D
:103770000A0000007001002061010020A803002061
:10378000D00E00202004002041542B514D545055A0
:10379000423D302C302C302C302C227075626C69FC
:1037A00063222C25730D0A00D003002041542B51B5
:1037B0004D545055423D302C302C302C302C227042
:1037C00075626C6963222C44656275675F73686912
:1037D000705F706F7765726C6F73655F5761726E43
:1037E000696E67230D0A0000F803002041542B5135
:1037F0004D545055423D302C302C302C302C227002
:1038000075626C6963222C44656275675F736869D1
:10381000705F68696768745F74656D705F77617207
:103820006E696E67230D0A0025730A0041542B51FF
:103830004D545055423D302C302C302C302C2270C1
:1038400075626C6963222C7468696E672E73657289
:10385000766963652E72756E3A6265617473310DB7
:103860000A000000C2020020380000204C000020A6
:10387000480000206E6F206C696E6B0A000000002B
:103880001CB570E0022008F08DF837A000F05AFB5C
:1038900040A000F057FB10214A48FEF7EBFC202126
:1038A0004848FEF7E7FC0AF037F90322002101201F
:1038B0000BF076F84449086000223C2114200BF0FC
:1038C0006FF8424908604248032100234FF4807298
:1038D000CDE900103FA142480BF0CCFB002041494C
:1038E00008704148042100238A01CDE900103FA15E
:1038F00044480BF0BFFB4448032100234FF480727F
:10390000CDE9001041A145480BF0B4FB4448042127
:1039100000238A01CDE9001042A146480BF0AAFB22
:103920004548032100234FF48072CDE9001043A1E4
:1039300045480BF09FFB4548032100234FF480725C
:10394000CDE9001042A146480BF094FB2E480068D8
:103950000AF0C2FC244800680AF0BEFC0AF018F91C
:1039600064200AF01DFA8DE741542B514D545055F7
:10397000423D302C302C302C302C227075626C691A
:1039800063222C73756363657373206C696E6B239C
:103990000D0A000041542B514D545055423D302CDE
:1039A000302C302C302C227075626C6963222C44D0
:1039B000656275675F736869705F4964656C230D44
:1039C0000A00000000000240580200205C020020B3
:1039D00040000020526F7574655F5461736B000086
:1039E000155F00086C0100203C00002053656E73D9
:1039F0006F72735F50726F63657373696E675F5444
:103A000061736B009573000834000020496F745F88
:103A100050756273685F5461736B0000913C0008DD
:103A200038000020496F745F526563765F5461739C
:103A30006B000000013E0008480000204770735FE3
:103A40005461736B00000000FD2A00084C00002048
:103A50004770735F53656E645F5461736B00000061
:103A6000312A00081CB5A0E040F6B8300AF098F9F9
:103A7000FDF7C6FC4DA004F085FA51A000F062FAF3
:103A800000BF52A15348FCF71FFC534908604FA1E7
:103A90005148006809F053FB10B150A000F052FAF1
:103AA0004D4800680028ECD14FA004F06BFA4FF4A9
:103AB000FA600AF075F901F07BFB4CA004F062FAA1
:103AC000FDF79EFC4DA000F03DFA4FF0FF314D4850
:103AD00000680BF0A5F94FF0FF314A4800680BF081
:103AE0009FF93C49484804F032FA64200AF058F93A
:103AF00046A004F047FAFDF783FC48A000F022FA44
:103B00004FF0FF313F4800680BF08AF94FF0FF316A
:103B10003C4800680BF084F92E493B4804F017FA42
:103B200041A004F02FFAFDF76BFC43A000F00AFA65
:103B30004FF0FF31334800680BF072F94FF0FF315E
:103B4000304800680BF06CF922492F4804F0FFF967
:103B50003DA004F017FA002410E0FDF751FC40A04E
:103B600000F0F0F94FF0FF31264800680BF058F9EB
:103B70004FF496700AF014F9601CC4B2142CECDBFC
:103B800001F016FB09F0C8FF3848032100234FF469
:103B90008072CDE9001036A13B480BF06BFA09F0BA
:103BA000F7FF3A4800680AF035F95DE7B2E9BFB4BB
:103BB000C4A3BFE9CAC7B7F1B9A4D7F70A00000088
:103BC00041542B4350494E3F000000004552524F94
:103BD00052000000EA0900206402002041542B51E9
:103BE000504F57443D3000004F4B0A00BBF1C8A175
:103BF000D0C5BAC5D6CAC1BF0A00000041542B4384
:103C0000535100005400002000100140BFAAC6F428
:103C1000475053B5E7D4B40A0000000041542B517B
:103C2000474E5353433D3100BFAAC6F420474E537D
:103C300053414750530A000041542B51474E5353B0
:103C4000414750533D310000B2E9BFB4475053C41F
:103C5000A3BFE9CAC7B7F1B9A4D7F70A00000000AB
:103C600041542B51474E5353433F00003000002036
:103C7000496F745F436F6E6E65745F414C4959556F
:103C80004E5F5461736B0000813800082C000020E7
:103C9000002470E04FF0FF31374800680BF0C0F8A7
:103CA0004FF496713548FCF704FB354A35A133488B
:103CB00004F078F931493BA004F064F92F4800F092
:103CC00041F9FDF79DFB3B48007802284EDB09F0E7
:103CD00023FF394800680AF0FFFA09F059FF0AF09B
:103CE000F9FB0AF01BFC26E034480078022802D1D8
:103CF0000AF0DCFB20E0062094FBF0F100FB114011
:103D000010B92FA000F01EF9601CC4B22B48007837
:103D1000012808D1172C0ADB00202849087000244C
:103D20000AF0C4FB08E0052C01DB002404E04FF49A
:103D30007A700AF035F8D7E700BF00201D490870F7
:103D400009F0EAFE2B4800680AF0FCF909F020FFB0
:103D500000202949087009F0DFFE284800680AF0B1
:103D6000BBFA09F015FF0A200AF01AF8114800788A
:103D7000401C104908708DE7580200208807002079
:103D8000B408002041542B514D545055423D302C25
:103D9000302C302C302C227075626C6963222C25FB
:103DA000730D0A006174737472203D202573200D19
:103DB0000A000000E00200203C0000206C0100200E
:103DC00041542B514D545055423D302C302C302C09
:103DD000302C227075626C6963222C4465627567B1
:103DE0005F736869705F72656C65617365230D0A46
:103DF000000000004000002061010020340000208D
:103E000094B03F4800680AF067FA3EA500BF75E02D
:103E10004FF0FF31404800680BF002F8502168462F
:103E2000FCF747FA3DA13F48FCF74EFA3E490860CF
:103E300008460068002841D038A23A49684607F091
:103E40005DF83AA1684607F075F860B33848008815
:103E5000401C37490880002417E02846FCF746FA42
:103E600006463049081932462946FCF74FFA50B940
:103E70002846FCF73BFA2B49214446183146684650
:103E8000FCF73BFA06E0601C84B22648FCF72EFAE9
:103E9000A042E2D800BF00235A1E694625480068A8
:103EA0000AF034FE25E00020214908800023421E4C
:103EB0002149204800680AF029FE1AE01FA119488C
:103EC000FCF702FA184908604522432116480068A9
:103ED00009F054F943201449096808701248006831
:103EE00038B100235A1E10480168124800680AF0D1
:103EF0000DFEFDF785FA0A2009F052FF88E7000061
:103F0000300000202B51474E535352443A2024474F
:103F10004E524D43000000005400002024474E52F2
:103F20004D430000160B00206402002045000000F5
:103F3000C00200205C0200207002002022434A30B0
:103F4000323A000010B50446224602A1034803F0AD
:103F50006AFF10BD25730D0A0000000000480040F4
:103F60002DE9F0412DED0C8B06460F4614461D46FB
:103F70000EE04D480078401C4B4908700846007818
:103F8000C82802DD0020087006E0012009F042F98F
:103F9000464800780028ECD000BF454800792080D2
:103FA0002188A1F11900FCF748FB41EC1C0B9FEDA7
:103FB000410B53EC102BFCF75FFA41EC1B0B9FED10
:103FC0003F0B53EC102BFCF7B0F941EC190B218897
:103FD000A1F11900FCF731FB41EC1D0B9FED390BF2
:103FE00053EC102BFCF748FA41EC1B0B30494A7894
:103FF000097802EB0120FCF720FB41EC1C0B53EC91
:104000001B2BFCF792F941EC1A0B53EC192BFCF724
:10401000A5FA41EC180BFCF797FB30602448407977
:1040200028802988A1F11900FCF707FB41EC1C0B43
:104030009FED200B53EC102BFCF71EFA41EC1B0BF1
:104040009FED1E0B53EC102BFCF76FF941EC1A0B94
:104050002988A1F11900FCF7F0FA41EC1D0B9FED46
:10406000190B53EC102BFCF707FA41EC1B0B104912
:10407000CA78897802EB0120FCF7DFFA41EC1C0BCF
:1040800053EC1B2BFCF751F941EC180B53EC1A2B9A
:10409000FCF764FA41EC190BFCF756FB3860BDECF9
:1040A0000C8BBDE8F08100000D03002050020020C1
:1040B0004A020020E86A2BF697DDA33F00000000CB
:1040C0000000F03FAED85F764F1E863F10B503F07C
:1040D000AFFB10BD10B50B2001F012FF10BD0000AA
:1040E00013B52DED040BCCB000204B909FEDFE0BD3
:1040F0008DED260B03204A909FEDFD0B8DED380BC7
:104100009FEDFD0B8DED360B4A98FCF796FACDE945
:1041100020019DED200B53EC102B9DED4C0B51EC31
:10412000100BFCF71BFA9FEDF60B53EC102BCDE9AF
:1041300022019DED220B51EC100BFCF7F6F8CDE9B6
:1041400024019DED240B51EC100BFCF794FA4B90DD
:104150004A994B9848432590FCF76FFA4591449053
:104160009DED260B53EC102B9DED440B51EC100BE9
:10417000FCF782F9459144909FEDE30B8DED420BE6
:104180009DED260B53EC102B9DED4C0B51EC100BC1
:10419000FCF772F9499148909DED260B53EC102BDA
:1041A0009DED4E0B51EC100BFCF766F947914690D4
:1041B0009DED360B53EC102B9DED360B51EC100B97
:1041C000FCF75AF9CDE924019DED360B53EC102B89
:1041D0009FEDCF0B51EC100BFCF74EF9CDE922010E
:1041E0009DED240B53EC102B9DED220B51EC100B8D
:1041F000FCF73CF9CDE934019DED340B53EC102B69
:104200009FEDC50B51EC100BFCF730F9CDE9240103
:104210009DED340B53EC102B9DED240B51EC100B4A
:10422000FCF72AF9CDE932019DED460B04F0D8FFE9
:104230008DED1E0B9DED460B04F0D2FF8DED1A0B9C
:104240009DED340B53EC102B9DED1A0B51EC100B24
:10425000FCF712F9CDE91C019DED1E0B53EC102B60
:104260009DED1C0B51EC100BFCF706F99FEDAA0B12
:1042700053EC102BCDE920019DED200B51EC100BE0
:10428000FCF7F7F8CDE922019DED220B05F00CF8C3
:104290008DED240B9DED240B53EC102B9DED380B75
:1042A00051EC100BFCF75AF9CDE930019DED460BAE
:1042B00005F03AF88DED240B9DED460B05F034F832
:1042C0008DED220B9DED240B53EC102B9DED220B5D
:1042D00051EC100BFCF7D0F8CDE92E019DED460B0B
:1042E00004F0F2F88DED240B9DED460B04F0ECF894
:1042F0008DED200B9DED320B53EC102B9DED200B23
:1043000051EC100BFCF7B8F8CDE922019DED240B20
:1043100053EC102B9DED220B51EC100BFCF7ACF87D
:10432000CDE92C019DED460B04F0CEF88DED240B6C
:104330009DED440B53EC102B9DED480B51EC100BF5
:10434000FCF794F8CDE922019DED240B53EC102BE2
:104350009DED220B51EC100BFCF78EF8CDE92A01F4
:104360009DED460B53EC102B9FED6D0B51EC100B9C
:10437000FCF782F8CDE91A019DED1A0B04F030FF2D
:104380008DED1E0B9DED340B53EC102B9FED660B4A
:1043900051EC100BFCF770F8CDE916019DED340BD4
:1043A00053EC102B9DED160B51EC100BFCF764F841
:1043B000CDE918019DED340B53EC102B9DED180B3E
:1043C00051EC100BFCF758F89FED590B53EC102BE8
:1043D000CDE91A019DED1A0B51EC100BFCF7BEF85C
:1043E000CDE91C019DED1E0B53EC102B9DED1C0B1C
:1043F00051EC100BFCF740F8CDE922019DED460B86
:1044000053EC102B9FED4C0B51EC100BFCF734F8D8
:10441000CDE916019DED160B04F0E2FE8DED1A0BB1
:104420009DED340B53EC102B9FED450B51EC100B15
:10443000FCF722F8CDE90E019DED340B53EC102B67
:104440009DED0E0B51EC100BFCF716F8CDE91001A9
:104450009DED340B53EC102B9DED100B51EC100B1C
:10446000FCF70AF89FED380B53EC102BCDE9120145
:104470009DED120B51EC100BFCF770F8CDE9160115
:104480009DED340B53EC102B9FED310B51EC100BC9
:10449000FBF7F2FFCDE910019DED340B53EC102B2F
:1044A0009DED100B51EC100BFBF7E6FF9FED2A0B77
:1044B00053EC102BCDE912019DED120B51EC100BBA
:1044C000FCF74CF8CDE914019DED160B53EC102BC5
:1044D0009DED140B51EC100BFBF727FFCDE91801F4
:1044E0009DED1A0B3CE000003A9D52A246DF913F41
:1044F00000000040A654584128E1F3845A776B3FEE
:10450000000000000000E03F00000000000000008C
:104510000000000000000040000000000000F03F2C
:104520000000000000001840000000000080414032
:10453000000000000000A840000000000000104043
:104540000000000000804640000000000000904095
:104550000000000000002E4000000000000070403D
:1045600053EC102B9DED180B51EC100BFBF784FF57
:10457000CDE91E019DED460B53EC102B1FED1C0BDE
:1045800051EC100BFBF778FFCDE912019DED120BFA
:1045900004F026FE8DED160B9DED340B53EC102B25
:1045A0001FED190B51EC100BFBF766FFCDE90A016B
:1045B0009DED340B53EC102B9DED0A0B51EC100BC1
:1045C000FBF75AFFCDE90C019DED340B53EC102B9A
:1045D0009DED0C0B51EC100BFBF74EFF1FED260B66
:1045E00053EC102BCDE90E019DED0E0B51EC100B91
:1045F000FBF7B4FFCDE912019DED340B53EC102B0A
:104600009FEDFE0B51EC100BFBF736FFCDE90801D7
:104610009DED340B53EC102B9DED080B51EC100B62
:10462000FBF72AFF9FEDF70B53EC102BCDE90A01A6
:104630009DED0A0B51EC100BFBF790FFCDE90E013D
:104640009DED340B53EC102B9FEDEC0B51EC100B4C
:10465000FBF712FF9FEDED0B53EC102BCDE90A0198
:104660009DED0A0B51EC100BFBF778FFCDE90C0127
:104670009DED0E0B53EC102B9DED0C0B51EC100B24
:10468000FBF753FECDE910019DED120B53EC102BFF
:104690009DED100B51EC100BFBF747FECDE914011B
:1046A0009DED160B53EC102B9DED140B51EC100BE4
:1046B000FBF7E2FECDE91A019DED340B53EC102B14
:1046C0009FEDD40B51EC100BFBF7D6FECDE90C019E
:1046D0009DED340B53EC102B9DED0C0B51EC100B9E
:1046E000FBF7CAFECDE90E019DED340B53EC102B08
:1046F0009DED0E0B51EC100BFBF7BEFE1FED6A0B90
:1047000053EC102BCDE910019DED100B51EC100B6B
:10471000FBF724FFCDE914019DED340B53EC102B76
:104720009FEDB60B51EC100BFBF7A6FECDE90A018D
:104730009DED340B53EC102B9DED0A0B51EC100B3F
:10474000FBF79AFE9FEDB50B53EC102BCDE90C0156
:104750009DED0C0B51EC100BFBF700FF1FED8A0BCE
:1047600053EC102BCDE910019DED340B51EC100BE7
:10477000FBF7F4FE1FED980B53EC102BCDE90C0169
:104780009DED0C0B51EC100BFBF773FECDE90E0108
:104790009DED100B53EC102B9DED0E0B51EC100BFF
:1047A000FBF764FECDE912019DED140B53EC102BC9
:1047B0009DED120B51EC100BFBF758FECDE91601E5
:1047C0009DED460B53EC102B9DED160B51EC100B91
:1047D000FBF752FECDE918019DED1A0B53EC102B9F
:1047E0009DED180B51EC100BFBF740FECDE91C01C1
:1047F0009DED1E0B53EC102B9DED1C0B51EC100B83
:10480000FBF793FDCDE920019DED220B53EC102B1E
:104810009DED200B51EC100BFBF728FECDE9240198
:104820009DED380B53EC102B9DED240B51EC100B30
:10483000FBF722FECDE928019DED320B53EC102B46
:104840009FED780B51EC100BFBF716FECDE9120132
:104850009DED2C0B53EC102B9FED740B51EC100BBA
:10486000FBF70AFECDE90E019DED2E0B53EC102B4C
:104870009DED2E0B51EC100BFBF7FEFDCDE90A016F
:104880009DED2E0B53EC102B9FED6A0B51EC100B92
:10489000FBF7F2FD9FED5F0B53EC102BCDE906010A
:1048A0009DED060B51EC100BFBF7E3FDCDE9080184
:1048B0009DED0A0B53EC102B9DED080B51EC100BEA
:1048C000FBF733FDCDE90C019DED0E0B53EC102BE6
:1048D0009DED0C0B51EC100BFBF727FDCDE9100102
:1048E0009DED120B53EC102B9DED100B51EC100BAA
:1048F000FBF7BCFDCDE914019DED2A0B53EC102B09
:104900009DED140B51EC100BFBF7B6FDCDE9160134
:104910009DED2A0B53EC102B9DED160B51EC100B5B
:10492000FBF7AAFDCDE918019DED2A0B53EC102BE6
:104930009DED180B51EC100BFBF79EFDCDE91A0114
:104940009DED2A0B53EC102B9DED1A0B51EC100B27
:10495000FBF792FDCDE91C019DED2A0B53EC102BCA
:104960009DED1C0B51EC100BFBF786FD9FED330BFF
:1049700053EC102BCDE91E019DED1E0B51EC100BDD
:10498000FBF7ECFDCDE922019DED2E0B53EC102B36
:104990009FED2C0B51EC100BFBF768FDCDE91401DA
:1049A0009DED2C0B53EC102B9DED140B51EC100BCB
:1049B000FBF7BBFCCDE916019DED2A0B53EC102B48
:1049C0009DED160B51EC100BFBF756FDCDE91801D0
:1049D0009DED2A0B53EC102B9DED180B51EC100B99
:1049E000FBF74AFDCDE91A019DED2A0B53EC102B84
:1049F0009DED1A0B51EC100B28E0000000000000A8
:104A000000000840000000000000404000000000DE
:104A100000002040000000000000144000000000E2
:104A2000000050400000000000004D400000000069
:104A30000000524000000000000032400000000072
:104A400000005E40000000000000F03FFBF714FD96
:104A50009FEDFB0B53EC102BCDE91C019DED1C0BC6
:104A600051EC100BFBF77AFDCDE91E019DED2A0BF1
:104A700053EC102B9DED1E0B51EC100BFBF755FC6E
:104A8000CDE920019DED220B53EC102B9DED200B69
:104A900051EC100BFBF749FCCDE924019DED300BE7
:104AA00053EC102B9DED240B51EC100BFBF7E4FCA9
:104AB000CDE93C019DED320B53EC102B9FEDE20B49
:104AC00051EC100BFBF7D8FCCDE90C019DED2C0B44
:104AD00053EC102B9FEDDE0B51EC100BFBF7CCFCD5
:104AE000CDE908019DED2E0B53EC102B9DED2E0B07
:104AF00051EC100BFBF7C0FCCDE904019DED2E0B32
:104B000053EC102B1FED390B51EC100BFBF7B4FCE1
:104B10009FEDD10B53EC102BCDE900019DED000B67
:104B200051EC100BFBF7A5FCCDE902019DED040B48
:104B300053EC102B9DED020B51EC100BFBF7F5FB2A
:104B4000CDE906019DED080B53EC102B9DED060BF6
:104B500051EC100BFBF7E9FBCDE90A019DED0C0BC5
:104B600053EC102B9DED0A0B51EC100BFBF77EFC68
:104B7000CDE90E019DED2A0B53EC102B9DED0E0B94
:104B800051EC100BFBF778FCCDE910019DED2A0BE1
:104B900053EC102B9DED100B51EC100BFBF76CFC44
:104BA000CDE912019DED2A0B53EC102B9DED120B5C
:104BB00051EC100BFBF760FCCDE914019DED2A0BC5
:104BC00053EC102B9DED140B51EC100BFBF754FC28
:104BD000CDE916019DED2A0B53EC102B9DED160B24
:104BE00051EC100BFBF748FCCDE918019DED2A0BA9
:104BF00053EC102B9DED180B51EC100BFBF73CFC0C
:104C00009FED970B53EC102BCDE91A019DED1A0B7C
:104C100051EC100BFBF7A2FCCDE91E019DED2C0B16
:104C200053EC102B9FED900B51EC100BFBF724FC79
:104C3000CDE908019DED2C0B53EC102B9DED080BDD
:104C400051EC100BFBF718FCCDE90C019DED2C0B82
:104C500053EC102B9FED860B51EC100BFBF70CFC6B
:104C6000CDE908019DED2E0B53EC102B1FED970B9A
:104C700051EC100BFBF7FAFBCDE906019DED080B9B
:104C800053EC102B9DED060B51EC100BFBF74DFB7D
:104C9000CDE90A019DED0C0B53EC102B9DED0A0B99
:104CA00051EC100BFBF741FBCDE90E019DED2A0BFA
:104CB00053EC102B9DED0E0B51EC100BFBF7DCFBB6
:104CC000CDE910019DED2A0B53EC102B9DED100B3F
:104CD00051EC100BFBF7D0FBCDE912019DED2A0B37
:104CE00053EC102B9DED120B51EC100BFBF7C4FB9A
:104CF000CDE914019DED2A0B53EC102B9DED140B07
:104D000051EC100BFBF7B8FB9FED5B0B53EC102B3A
:104D1000CDE916019DED160B51EC100BFBF71EFCB7
:104D2000CDE91A019DED2A0B53EC102B9DED2A0BBA
:104D300051EC100BFBF7A0FB9FED510B53EC102B2C
:104D4000CDE916019DED160B51EC100BFBF706FC9F
:104D5000CDE918019DED1A0B53EC102B9DED180BAE
:104D600051EC100BFBF7E1FACDE91C019DED1E0B98
:104D700053EC102B9DED1C0B51EC100BFBF7D5FAEF
:104D8000CDE922019DED460B04F0CEFA8DED1E0B10
:104D90009DED300B53EC102B9DED1E0B51EC100BC9
:104DA000FBF76AFBCDE920019DED220B53EC102BA4
:104DB0009DED200B51EC100BFBF75EFBCDE92401C0
:104DC0009DED280B53EC102B9DED240B51EC100B9B
:104DD000FBF7ABFACDE93A012B494A004B9802FBAD
:104DE00000102590FBF729FC419140909FED270B87
:104DF0008DED3E0B9DED400B53EC102B9DED3C0BD0
:104E000051EC100BFBF791FACDE93C019DED3E0B07
:104E100053EC102B9DED3A0B51EC100BFBF785FA80
:104E2000CDE93A019DED3C0B509880ED000B9DEDD6
:104E30003A0B519880ED000B012052B010BD0000DC
:104E400000000000000018400000000000A07440B6
:104E50000000000000C082400000000000804E40C2
:104E600000000000008086400000000000001040AC
:104E70000000000000002240000000000000384058
:104E8000000000000000004020A10700000000001A
:104E90000000000010B5102001F032F810BD000035
:104EA00070B50546002423A12846FBF70DFA2249D8
:104EB000086008460068002839D000BF06E01E4898
:104EC0000168A01C085C1D490855641C092CF6DB10
:104ED0001BA12846FBF7F8F9174908600846006847
:104EE00058B1002407E014480168A01C095C13486D
:104EF0000A300155641C0A2CF5DB104805F0DAFC79
:104F00000E4880ED0A0B0A3005F0D4FC0B4880ED0A
:104F10000C0B90ED0A0B0B4880ED000B074890ED51
:104F20000C0B094880ED000B064906F035F9FCF73B
:104F300067FA70BD412C0000640200206804002064
:104F40004E2C0000680000207000002000BFFEE72B
:104F500070B505460FA003F015F80FA003F012F886
:104F600001240AE0114800EBC40042680F4850F8E1
:104F700034100FA003F006F8641CAC42F2DB2946A3
:104F8000284606F08BFB0CA002F0FCFF07F0CAF9E4
:104F900070BD00000A000000D7EED0A1C9FAB3C965
:104FA000CAF7B5C4B1DFCEAA0A000000C0060020CF
:104FB00025642025640A0000D7EED0A1C9FAB3C940
:104FC000CAF7B5C4C1DABDD3B1EDCEAA0A0000005C
:104FD00070B58AB006460C4624220CA101A8FBF746
:104FE0004FF928211248FBF764F9224601A910481D
:104FF00002F0D8FF0E48FBF779F905462A460C491E
:105000003046FBF73DF9E8B20AB070BD7468696ECE
:10501000672E736572766963652E72756E3A736872
:1050200069705F626174746572793A256425250040
:10503000D003002070B58AB006460C4624220CA18D
:1050400001A8FBF71DF928211248FBF732F9224687
:1050500001A9104802F0A6FF0E48FBF747F90546E4
:105060002A460C493046FBF70BF9E8B20AB070BD8E
:105070007468696E672E736572766963652E7275E2
:105080006E3A736869705F6370755F74656D703ACE
:1050900025642300F8030020F0B58BB007460C46CA
:1050A00015462C220DA16846FBF7EAF84FF49671DD
:1050B0001548FBF7FEF82B4622466946124802F0D7
:1050C00071FF1148FBF712F9064632460E49384681
:1050D000FBF7D6F8F0B20BB0F0BD00007468696E53
:1050E000672E736572766963652E72756E3A7368A2
:1050F00069705F6C6F636174696E3A25732C4E2C16
:1051000025732C4500000000A80300202DE9FF5F57
:105110002DED080B2DED088BE6B00D4617461E460B
:10512000B0EE408AF0EE608AB0EE419AF0EE619AFD
:10513000B0EE42AAF0EE62AAB0EE43BAF0EE63BA65
:105140000DF5047898E8000F4FF4AE7216490FA8D9
:10515000FBF796F84FF496711448FBF7AAF8889875
:105160000E908DED0CBB8DED0AAB05A8A0E8A00C50
:1051700004968DED028B53EC192B0FA90B48CDE94A
:10518000009802F00FFF0948FBF7B0F804462246EA
:1051900006497698FBF774F8E0B266B0BDEC088B70
:1051A0000CB0BDE8F09F0000A8FA0008B408002089
:1051B00010B50548007810B9FEF7C2F902E003A067
:1051C000FEF7C0FE10BD00006000002041542B51CE
:1051D0004D545055423D302C302C302C302C227008
:1051E00075626C6963222C44656275675F736869D8
:1051F000705F53797374656D5F5265737461727417
:105200000D0A0000704710B50C2000F079FE10BDAB
:1052100008B54FF4A06000F05DF825208DF800007F
:1052200001208DF801008DF802008DF8030068461A
:1052300000F014F808BD08B54FF4A06000F04AF87B
:105240001E208DF8000001208DF801008DF802006D
:105250008DF80300684600F001F808BD70B5002124
:1052600000230F22C4781CB3174C246804F4E064B4
:10527000C4F5E064C4F30721C1F10404E3B20A41B8
:1052800044789C40E1B28478144021430C07210EFD
:105290000E4C05786155047804F01F050124AC40DC
:1052A00005786D11AD0005F1E025C5F8004109E074
:1052B000047804F01F050124AC40054D06787611F2
:1052C00045F8264070BD00000CED00E000E400E071
:1052D00080E100E002490143024A1160704700008A
:1052E0000000FA050CED00E010B50E2000F008FEFD
:1052F00010BD000070B52DED088BFDF7E7FCC4482C
:1053000090ED002BB0EE420AF0EE620AC14890ED3B
:10531000002BB0EE421AF0EE621A53EC102B51EC57
:10532000110BFBF7A3F841EC1A0BB94890ED041BE5
:10533000B0EE410AF0EE610A53EC102B51EC1A0B5F
:10534000FBF79AF8B34A03C2B14890ED022BB0EED6
:10535000420AF0EE620AAF4890ED022BB0EE421A1C
:10536000F0EE621A53EC102B51EC110BFBF77EF8A8
:1053700041EC1A0BA64890ED061BB0EE410AF0EE88
:10538000610A53EC102B51EC1A0BFBF775F8A14A8C
:10539000C2E90201104690ED002BB0EE421AF0EE89
:1053A000621A90ED022BB0EE420AF0EE620A02F0B1
:1053B00093FFB0EE40BAF0EE60BA9FED970B53EC5E
:1053C000102B51EC1B0BFBF757F841EC1A0B9FED20
:1053D000940B53EC102BFAF7A8FF8E4AC2E9060192
:1053E000104690ED061BB0EE410AF0EE610A9FED0B
:1053F0008E1B53EC112B51EC100BFBF78DF911D8D0
:10540000844890ED061BB0EE410AF0EE610A9FED74
:10541000861B53EC112B51EC100BFBF727F87D4A40
:10542000C2E906017B4890ED060BB0EE401AF0EEA3
:10543000601A7F4890ED000B06F07CFCB0EE409ABD
:10544000F0EE609A9FED7B0B53EC102B51EC190B97
:10545000FBF762F90BD253EC192B784890ED000B57
:1054600051EC100BFBF708F841EC180B19E09FED1D
:10547000710B53EC102B51EC190BFBF735F910D2D3
:1054800053EC192B6D4890ED000B51EC100BFAF713
:10549000F3FF41EC180B51EC180B81F0004141EC8B
:1054A000180B674890ED000B53EC102B51EC180BC8
:1054B000FBF732F906D8624890ED000BB0EE408A57
:1054C000F0EE608A5F480078022824D153EC182B54
:1054D0005B4890ED000B51EC100BFAF726FF41EC06
:1054E0001B0B81F0004141EC1A0BFBF7C4F804469A
:1054F000534890ED000B51EC100B81F0004141EC52
:105500001A0BFBF7B8F80546204607F09FFD284622
:1055100007F0BEFD79E04B480078032824D14848C5
:1055200090ED000B51EC100B81F0004141EC1A0B97
:10553000FBF7A1F8044653EC182B414890ED000B03
:1055400051EC100BFAF7F1FE41EC1B0B81F000411E
:1055500041EC1A0BFBF78FF80546204607F076FD65
:10556000284607F095FD50E036480078012824D100
:1055700053EC182B324890ED000B51EC100BFAF75E
:10558000D4FE41EC1B0B81F0004141EC1A0BFBF700
:1055900072F804462A4890ED000B51EC100B81F094
:1055A000004141EC1A0BFBF766F80546204607F070
:1055B0004DFD284607F06CFD27E02248007820BB0F
:1055C0001F4890ED000B51EC100B81F0004141ECB5
:1055D0001A0BFBF750F8044653EC182B184890EDC3
:1055E000000B51EC100BFAF7A0FE41EC1B0B81F005
:1055F000004141EC1A0BFBF73EF80546204607F048
:1056000025FD284607F044FD00BFBDEC088B70BDAA
:10561000600F0020400F0020775AF01ADCA54C40A4
:10562000000000000080664000000000008076401E
:105630008800002000000000000000002001002081
:10564000380100206B01002070B52DED088BFDF7AF
:105650003DFBA84890ED002BB0EE420AF0EE620A46
:10566000A54890ED002BB0EE421AF0EE621A53EC12
:10567000102B51EC110BFAF7F9FE41EC1A0B9D4877
:1056800090ED041BB0EE410AF0EE610A53EC102BD2
:1056900051EC1A0BFAF7F0FE974A03C2954890EDC9
:1056A000022BB0EE420AF0EE620A934890ED022B14
:1056B000B0EE421AF0EE621A53EC102B51EC110BC3
:1056C000FAF7D4FE41EC1A0B8A4890ED061BB0EEB7
:1056D000410AF0EE610A53EC102B51EC1A0BFAF769
:1056E000CBFE854AC2E90201104690ED002BB0EED8
:1056F000421AF0EE621A90ED022BB0EE420AF0EE82
:10570000620A02F0E9FDB0EE40BAF0EE60BA9FED39
:105710007B0B53EC102B51EC1B0BFAF7ADFE41EC5D
:105720001A0B9FED780B53EC102BFAF7FEFD724A23
:10573000C2E90601104690ED061BB0EE410AF0EEFC
:10574000610A9FED721B53EC112B51EC100BFAF711
:10575000E3FF11D8684890ED061BB0EE410AF0EE69
:10576000610A9FED6A1B53EC112B51EC100BFAF7F9
:105770007DFE614AC2E906015F4890ED061BB0EE6E
:10578000410AF0EE610A53EC102B62A002F0FAFB22
:10579000594890ED060BB0EE401AF0EE601A6548DD
:1057A00090ED000B06F0C6FAB0EE409AF0EE609A6B
:1057B0009FED610B53EC102B614890ED000B51EC09
:1057C000100BFAF791FF0BD25D4890ED000B51ECF6
:1057D000100B81F0004141EC100B594880ED000B9B
:1057E0009FED580B53EC102B554890ED000B51ECEE
:1057F000100BFAF779FF09D8002007F049FC0020C8
:1058000007F024FC0120BDEC088B70BD9FED4A0B16
:1058100053EC102B51EC190BFAF77EFF0BD253EC23
:10582000192B4A4890ED000B51EC100BFAF724FEAF
:1058300041EC180B19E09FED400B53EC102B51EC91
:10584000190BFAF751FF10D253EC192B3F4890ED8A
:10585000000B51EC100BFAF70FFE41EC180B51EC5A
:10586000180B81F0004141EC180B394800780228F0
:105870000CD1002451EC180BFAF7FDFE054620462A
:1058800007F0E4FB284607F003FC31E030480078DD
:1058900003280CD151EC180BFAF7EDFE0546002455
:1058A000284607F0D3FB204607F0F2FB20E028480B
:1058B000007801280CD1002451EC180BFAF7DBFE1C
:1058C0000546204607F0C2FB284607F0E1FB0FE043
:1058D0001F48007860B951EC180BFAF7CCFE05466A
:1058E0000024284607F0B2FB204607F0D1FB00BF9A
:1058F000002088E7600F0020400F0020775AF01A40
:10590000DCA54C4000000000008066400000000064
:1059100000807640476175737369616E5F58595AAC
:105920002E437572656E745F416E676C653D256CC4
:10593000660A00008800002000000000000000004F
:105940004001002000000000000034402001002041
:105950006B01002070B52DED0E8B0546002472A161
:105960002846FAF7B1FC714908600846006800282B
:105970007ED000BF06E06D480168A01C085C6C4941
:105980000855641C092CF6DB6AA12846FAF79CFC32
:10599000664908600846006858B1002407E063487B
:1059A0000168A01C095C62480A300155641C0A2C7D
:1059B000F5DB5F4804F07EFF5F4880ED000B5C483C
:1059C0000A3004F077FF5D4880ED000B9FED5C0B23
:1059D00053EC102B90ED000B51EC100BFAF7BEFDC1
:1059E00041EC1E0BFAF747FE0646FAF726FE41EC9D
:1059F0001C0B9FED530B53EC102B504890ED000BFC
:105A000051EC100BFAF7AAFD41EC1D0B53EC1C2BCB
:105A1000FAF72CFD41EC1B0B9FED490B53EC102BBF
:105A2000FAF72AFD41EC1A0B9FED470B53EC102BB4
:105A3000FAF794FD41EC180B9FED410B53EC102B42
:105A40003E4890ED000B51EC100BFAF787FD41EC4E
:105A50001A0BFAF710FE0646FAF7EFFD41EC190BA8
:105A600053EC182BFAF761FC41EC100B334800E0C3
:105A700055E080ED000B9FED320B53EC102B2E48C0
:105A800090ED000B51EC100BFAF768FD41EC1E0B8A
:105A9000FAF7F1FD0646FAF7D0FD41EC1C0B9FED3D
:105AA000280B53EC102B244890ED000B51EC100BFD
:105AB000FAF754FD41EC1D0B53EC1C2BFAF7D6FC06
:105AC00041EC1B0B9FED1E0B53EC102BFAF7D4FC93
:105AD00041EC1A0B9FED1C0B53EC102BFAF73EFD1B
